{
  "contractName": "register",
  "abi": [
    {
      "inputs": [
        {
          "internalType": "address",
          "name": "username",
          "type": "address"
        },
        {
          "internalType": "uint256",
          "name": "password",
          "type": "uint256"
        },
        {
          "internalType": "string",
          "name": "name",
          "type": "string"
        },
        {
          "internalType": "string",
          "name": "email",
          "type": "string"
        }
      ],
      "name": "registeruser",
      "outputs": [],
      "stateMutability": "nonpayable",
      "type": "function"
    },
    {
      "inputs": [],
      "name": "viewusers",
      "outputs": [
        {
          "internalType": "address[]",
          "name": "",
          "type": "address[]"
        },
        {
          "internalType": "uint256[]",
          "name": "",
          "type": "uint256[]"
        },
        {
          "internalType": "string[]",
          "name": "",
          "type": "string[]"
        },
        {
          "internalType": "string[]",
          "name": "",
          "type": "string[]"
        }
      ],
      "stateMutability": "view",
      "type": "function",
      "constant": true
    },
    {
      "inputs": [
        {
          "internalType": "address",
          "name": "username",
          "type": "address"
        },
        {
          "internalType": "uint256",
          "name": "password",
          "type": "uint256"
        }
      ],
      "name": "loginuser",
      "outputs": [
        {
          "internalType": "bool",
          "name": "",
          "type": "bool"
        }
      ],
      "stateMutability": "view",
      "type": "function",
      "constant": true
    }
  ],
  "bytecode": "0x608060405234801561001057600080fd5b50611004806100206000396000f3fe608060405234801561001057600080fd5b50600436106100415760003560e01c8063a46dec8b14610046578063ced460bd14610067578063ee711b7b14610097575b600080fd5b61004e6100b3565b60405161005e9493929190610933565b60405180910390f35b610081600480360381019061007c9190610a00565b61034f565b60405161008e9190610a5b565b60405180910390f35b6100b160048036038101906100ac9190610bab565b61047e565b005b60608060608060006001600260038380548060200260200160405190810160405280929190818152602001828054801561014257602002820191906000526020600020905b8160009054906101000a900473ffffffffffffffffffffffffffffffffffffffff1673ffffffffffffffffffffffffffffffffffffffff16815260200190600101908083116100f8575b505050505093508280548060200260200160405190810160405280929190818152602001828054801561019457602002820191906000526020600020905b815481526020019060010190808311610180575b5050505050925081805480602002602001604051908101604052809291908181526020016000905b828210156102685783829060005260206000200180546101db90610c79565b80601f016020809104026020016040519081016040528092919081815260200182805461020790610c79565b80156102545780601f1061022957610100808354040283529160200191610254565b820191906000526020600020905b81548152906001019060200180831161023757829003601f168201915b5050505050815260200190600101906101bc565b50505050915080805480602002602001604051908101604052809291908181526020016000905b8282101561033b5783829060005260206000200180546102ae90610c79565b80601f01602080910402602001604051908101604052809291908181526020018280546102da90610c79565b80156103275780601f106102fc57610100808354040283529160200191610327565b820191906000526020600020905b81548152906001019060200180831161030a57829003601f168201915b50505050508152602001906001019061028f565b505050509050935093509350935090919293565b600080600460008573ffffffffffffffffffffffffffffffffffffffff1673ffffffffffffffffffffffffffffffffffffffff16815260200190815260200160002060009054906101000a900460ff166103a857600080fd5b600090505b600080549050811015610472578373ffffffffffffffffffffffffffffffffffffffff16600082815481106103e5576103e4610caa565b5b9060005260206000200160009054906101000a900473ffffffffffffffffffffffffffffffffffffffff1673ffffffffffffffffffffffffffffffffffffffff161480156104505750826001828154811061044357610442610caa565b5b9060005260206000200154145b1561045f576001915050610478565b808061046a90610d08565b9150506103ad565b60009150505b92915050565b600460008573ffffffffffffffffffffffffffffffffffffffff1673ffffffffffffffffffffffffffffffffffffffff16815260200190815260200160002060009054906101000a900460ff16156104d557600080fd5b6001600460008673ffffffffffffffffffffffffffffffffffffffff1673ffffffffffffffffffffffffffffffffffffffff16815260200190815260200160002060006101000a81548160ff0219169083151502179055506000849080600181540180825580915050600190039060005260206000200160009091909190916101000a81548173ffffffffffffffffffffffffffffffffffffffff021916908373ffffffffffffffffffffffffffffffffffffffff16021790555060018390806001815401808255809150506001900390600052602060002001600090919091909150556002829080600181540180825580915050600190039060005260206000200160009091909190915090816105ed9190610efc565b506003819080600181540180825580915050600190039060005260206000200160009091909190915090816106229190610efc565b5050505050565b600081519050919050565b600082825260208201905092915050565b6000819050602082019050919050565b600073ffffffffffffffffffffffffffffffffffffffff82169050919050565b600061068082610655565b9050919050565b61069081610675565b82525050565b60006106a28383610687565b60208301905092915050565b6000602082019050919050565b60006106c682610629565b6106d08185610634565b93506106db83610645565b8060005b8381101561070c5781516106f38882610696565b97506106fe836106ae565b9250506001810190506106df565b5085935050505092915050565b600081519050919050565b600082825260208201905092915050565b6000819050602082019050919050565b6000819050919050565b61075881610745565b82525050565b600061076a838361074f565b60208301905092915050565b6000602082019050919050565b600061078e82610719565b6107988185610724565b93506107a383610735565b8060005b838110156107d45781516107bb888261075e565b97506107c683610776565b9250506001810190506107a7565b5085935050505092915050565b600081519050919050565b600082825260208201905092915050565b6000819050602082019050919050565b600081519050919050565b600082825260208201905092915050565b60005b8381101561084757808201518184015260208101905061082c565b60008484015250505050565b6000601f19601f8301169050919050565b600061086f8261080d565b6108798185610818565b9350610889818560208601610829565b61089281610853565b840191505092915050565b60006108a98383610864565b905092915050565b6000602082019050919050565b60006108c9826107e1565b6108d381856107ec565b9350836020820285016108e5856107fd565b8060005b858110156109215784840389528151610902858261089d565b945061090d836108b1565b925060208a019950506001810190506108e9565b50829750879550505050505092915050565b6000608082019050818103600083015261094d81876106bb565b905081810360208301526109618186610783565b9050818103604083015261097581856108be565b9050818103606083015261098981846108be565b905095945050505050565b6000604051905090565b600080fd5b600080fd5b6109b181610675565b81146109bc57600080fd5b50565b6000813590506109ce816109a8565b92915050565b6109dd81610745565b81146109e857600080fd5b50565b6000813590506109fa816109d4565b92915050565b60008060408385031215610a1757610a1661099e565b5b6000610a25858286016109bf565b9250506020610a36858286016109eb565b9150509250929050565b60008115159050919050565b610a5581610a40565b82525050565b6000602082019050610a706000830184610a4c565b92915050565b600080fd5b600080fd5b7f4e487b7100000000000000000000000000000000000000000000000000000000600052604160045260246000fd5b610ab882610853565b810181811067ffffffffffffffff82111715610ad757610ad6610a80565b5b80604052505050565b6000610aea610994565b9050610af68282610aaf565b919050565b600067ffffffffffffffff821115610b1657610b15610a80565b5b610b1f82610853565b9050602081019050919050565b82818337600083830152505050565b6000610b4e610b4984610afb565b610ae0565b905082815260208101848484011115610b6a57610b69610a7b565b5b610b75848285610b2c565b509392505050565b600082601f830112610b9257610b91610a76565b5b8135610ba2848260208601610b3b565b91505092915050565b60008060008060808587031215610bc557610bc461099e565b5b6000610bd3878288016109bf565b9450506020610be4878288016109eb565b935050604085013567ffffffffffffffff811115610c0557610c046109a3565b5b610c1187828801610b7d565b925050606085013567ffffffffffffffff811115610c3257610c316109a3565b5b610c3e87828801610b7d565b91505092959194509250565b7f4e487b7100000000000000000000000000000000000000000000000000000000600052602260045260246000fd5b60006002820490506001821680610c9157607f821691505b602082108103610ca457610ca3610c4a565b5b50919050565b7f4e487b7100000000000000000000000000000000000000000000000000000000600052603260045260246000fd5b7f4e487b7100000000000000000000000000000000000000000000000000000000600052601160045260246000fd5b6000610d1382610745565b91507fffffffffffffffffffffffffffffffffffffffffffffffffffffffffffffffff8203610d4557610d44610cd9565b5b600182019050919050565b60008190508160005260206000209050919050565b60006020601f8301049050919050565b600082821b905092915050565b600060088302610db27fffffffffffffffffffffffffffffffffffffffffffffffffffffffffffffffff82610d75565b610dbc8683610d75565b95508019841693508086168417925050509392505050565b6000819050919050565b6000610df9610df4610def84610745565b610dd4565b610745565b9050919050565b6000819050919050565b610e1383610dde565b610e27610e1f82610e00565b848454610d82565b825550505050565b600090565b610e3c610e2f565b610e47818484610e0a565b505050565b5b81811015610e6b57610e60600082610e34565b600181019050610e4d565b5050565b601f821115610eb057610e8181610d50565b610e8a84610d65565b81016020851015610e99578190505b610ead610ea585610d65565b830182610e4c565b50505b505050565b600082821c905092915050565b6000610ed360001984600802610eb5565b1980831691505092915050565b6000610eec8383610ec2565b9150826002028217905092915050565b610f058261080d565b67ffffffffffffffff811115610f1e57610f1d610a80565b5b610f288254610c79565b610f33828285610e6f565b600060209050601f831160018114610f665760008415610f54578287015190505b610f5e8582610ee0565b865550610fc6565b601f198416610f7486610d50565b60005b82811015610f9c57848901518255600182019150602085019450602081019050610f77565b86831015610fb95784890151610fb5601f891682610ec2565b8355505b6001600288020188555050505b50505050505056fea26469706673582212208fb50cadfd74f01bbf38755f3954dc8a2354fc1af8fc54a0d897383f3b7b22eb64736f6c63430008120033",
  "immutableReferences": {},
  "source": "// SPDX-License-Identifier: MIT\npragma solidity >=0.4.22 <0.9.0;\n\ncontract register {\n\n  address[] _usernames;\n  uint[] _passwords;\n  string[] _names;\n  string[] _emails;\n\n  mapping(address=>bool) users;\n\n  function registeruser(address username, uint password, string memory name, string memory email) public{\n\n    require(!users[username]);\n    users[username]=true;\n\n    _usernames.push(username);\n    _passwords.push(password);\n    _names.push(name);\n    _emails.push(email);\n  }\n\n  function viewusers() public view returns(address[] memory,uint[] memory, string[] memory , string[] memory){\n    return(_usernames,_passwords,_names,_emails);\n  }\n\n  function loginuser(address username,uint password) public view returns (bool){\n    uint i;\n    require(users[username]);\n\n    for (i=0;i<_usernames.length;i++){\n      if(_usernames[i]==username && _passwords[i]==password){\n        return true;\n      }\n    }\n    return false;\n  }\n}\n\n",
  "sourcePath": "/Users/ms/Desktop/Design-and-implementation-of-a-plagiarism-checker-api-using-python/contracts/register.sol",
  "compiler": {
    "name": "solc",
    "version": "0.8.18+commit.87f61d96.Emscripten.clang"
  },
  "schemaVersion": "3.4.8",
  "updatedAt": "2023-02-17T08:14:06.561Z",
  "networkType": "ethereum",
  "devdoc": {
    "kind": "dev",
    "methods": {},
    "version": 1
  },
  "userdoc": {
    "kind": "user",
    "methods": {},
    "version": 1
  }
}